{
  "_format": "hh-sol-artifact-1",
  "contractName": "CertificateVerification",
  "sourceName": "contracts/CertificateVerification.sol",
  "abi": [
    {
      "inputs": [],
      "stateMutability": "nonpayable",
      "type": "constructor"
    },
    {
      "inputs": [
        {
          "internalType": "address",
          "name": "owner",
          "type": "address"
        }
      ],
      "name": "OwnableInvalidOwner",
      "type": "error"
    },
    {
      "inputs": [
        {
          "internalType": "address",
          "name": "account",
          "type": "address"
        }
      ],
      "name": "OwnableUnauthorizedAccount",
      "type": "error"
    },
    {
      "anonymous": false,
      "inputs": [
        {
          "indexed": true,
          "internalType": "bytes32",
          "name": "certificateHash",
          "type": "bytes32"
        },
        {
          "indexed": false,
          "internalType": "string",
          "name": "studentName",
          "type": "string"
        },
        {
          "indexed": false,
          "internalType": "string",
          "name": "issuerName",
          "type": "string"
        },
        {
          "indexed": false,
          "internalType": "string",
          "name": "courseName",
          "type": "string"
        }
      ],
      "name": "CertificateIssued",
      "type": "event"
    },
    {
      "anonymous": false,
      "inputs": [
        {
          "indexed": true,
          "internalType": "bytes32",
          "name": "certificateHash",
          "type": "bytes32"
        },
        {
          "indexed": false,
          "internalType": "bool",
          "name": "isVerified",
          "type": "bool"
        }
      ],
      "name": "CertificateVerified",
      "type": "event"
    },
    {
      "anonymous": false,
      "inputs": [
        {
          "indexed": true,
          "internalType": "address",
          "name": "previousOwner",
          "type": "address"
        },
        {
          "indexed": true,
          "internalType": "address",
          "name": "newOwner",
          "type": "address"
        }
      ],
      "name": "OwnershipTransferred",
      "type": "event"
    },
    {
      "inputs": [
        {
          "internalType": "bytes32",
          "name": "",
          "type": "bytes32"
        }
      ],
      "name": "certificates",
      "outputs": [
        {
          "internalType": "string",
          "name": "studentName",
          "type": "string"
        },
        {
          "internalType": "string",
          "name": "issuerName",
          "type": "string"
        },
        {
          "internalType": "string",
          "name": "courseName",
          "type": "string"
        },
        {
          "internalType": "uint256",
          "name": "issueDate",
          "type": "uint256"
        },
        {
          "internalType": "bool",
          "name": "isVerified",
          "type": "bool"
        }
      ],
      "stateMutability": "view",
      "type": "function"
    },
    {
      "inputs": [
        {
          "internalType": "string",
          "name": "_studentName",
          "type": "string"
        },
        {
          "internalType": "string",
          "name": "_issuerName",
          "type": "string"
        },
        {
          "internalType": "string",
          "name": "_courseName",
          "type": "string"
        },
        {
          "internalType": "bytes32",
          "name": "_certificateHash",
          "type": "bytes32"
        }
      ],
      "name": "issueCertificate",
      "outputs": [],
      "stateMutability": "nonpayable",
      "type": "function"
    },
    {
      "inputs": [],
      "name": "owner",
      "outputs": [
        {
          "internalType": "address",
          "name": "",
          "type": "address"
        }
      ],
      "stateMutability": "view",
      "type": "function"
    },
    {
      "inputs": [],
      "name": "renounceOwnership",
      "outputs": [],
      "stateMutability": "nonpayable",
      "type": "function"
    },
    {
      "inputs": [
        {
          "internalType": "address",
          "name": "newOwner",
          "type": "address"
        }
      ],
      "name": "transferOwnership",
      "outputs": [],
      "stateMutability": "nonpayable",
      "type": "function"
    },
    {
      "inputs": [
        {
          "internalType": "bytes32",
          "name": "_certificateHash",
          "type": "bytes32"
        }
      ],
      "name": "verifyCertificate",
      "outputs": [
        {
          "internalType": "bool",
          "name": "",
          "type": "bool"
        },
        {
          "internalType": "string",
          "name": "",
          "type": "string"
        },
        {
          "internalType": "string",
          "name": "",
          "type": "string"
        },
        {
          "internalType": "string",
          "name": "",
          "type": "string"
        },
        {
          "internalType": "uint256",
          "name": "",
          "type": "uint256"
        }
      ],
      "stateMutability": "view",
      "type": "function"
    }
  ],
  "bytecode": "0x608060405234801561001057600080fd5b5033600073ffffffffffffffffffffffffffffffffffffffff168173ffffffffffffffffffffffffffffffffffffffff16036100845760006040517f1e4fbdf700000000000000000000000000000000000000000000000000000000815260040161007b919061019e565b60405180910390fd5b6100938161009960201b60201c565b506101b9565b60008060009054906101000a900473ffffffffffffffffffffffffffffffffffffffff169050816000806101000a81548173ffffffffffffffffffffffffffffffffffffffff021916908373ffffffffffffffffffffffffffffffffffffffff1602179055508173ffffffffffffffffffffffffffffffffffffffff168173ffffffffffffffffffffffffffffffffffffffff167f8be0079c531659141344cd1fd0a4f28419497f9722a3daafe3b4186f6b6457e060405160405180910390a35050565b600073ffffffffffffffffffffffffffffffffffffffff82169050919050565b60006101888261015d565b9050919050565b6101988161017d565b82525050565b60006020820190506101b3600083018461018f565b92915050565b6111d0806101c86000396000f3fe608060405234801561001057600080fd5b50600436106100625760003560e01c80635f2a4cda14610067578063715018a614610083578063742f06881461008d578063850c1768146100c15780638da5cb5b146100f5578063f2fde38b14610113575b600080fd5b610081600480360381019061007c9190610a78565b61012f565b005b61008b61027e565b005b6100a760048036038101906100a29190610b33565b610292565b6040516100b8959493929190610c13565b60405180910390f35b6100db60048036038101906100d69190610b33565b61046d565b6040516100ec959493929190610c7b565b60405180910390f35b6100fd6106e6565b60405161010a9190610d24565b60405180910390f35b61012d60048036038101906101289190610d6b565b61070f565b005b610137610795565b6000600160008381526020019081526020016000206003015414610190576040517f08c379a000000000000000000000000000000000000000000000000000000000815260040161018790610de4565b60405180910390fd5b6040518060a00160405280858152602001848152602001838152602001428152602001600115158152506001600083815260200190815260200160002060008201518160000190816101e29190611010565b5060208201518160010190816101f89190611010565b50604082015181600201908161020e9190611010565b506060820151816003015560808201518160040160006101000a81548160ff021916908315150217905550905050807f7c4d0022612c8427bebc27dd207fe7a6352aa564c738893ff6b184f40d4cddca858585604051610270939291906110e2565b60405180910390a250505050565b610286610795565b610290600061081c565b565b60016020528060005260406000206000915090508060000180546102b590610e33565b80601f01602080910402602001604051908101604052809291908181526020018280546102e190610e33565b801561032e5780601f106103035761010080835404028352916020019161032e565b820191906000526020600020905b81548152906001019060200180831161031157829003601f168201915b50505050509080600101805461034390610e33565b80601f016020809104026020016040519081016040528092919081815260200182805461036f90610e33565b80156103bc5780601f10610391576101008083540402835291602001916103bc565b820191906000526020600020905b81548152906001019060200180831161039f57829003601f168201915b5050505050908060020180546103d190610e33565b80601f01602080910402602001604051908101604052809291908181526020018280546103fd90610e33565b801561044a5780601f1061041f5761010080835404028352916020019161044a565b820191906000526020600020905b81548152906001019060200180831161042d57829003601f168201915b5050505050908060030154908060040160009054906101000a900460ff16905085565b60006060806060600080600160008881526020019081526020016000206040518060a00160405290816000820180546104a590610e33565b80601f01602080910402602001604051908101604052809291908181526020018280546104d190610e33565b801561051e5780601f106104f35761010080835404028352916020019161051e565b820191906000526020600020905b81548152906001019060200180831161050157829003601f168201915b5050505050815260200160018201805461053790610e33565b80601f016020809104026020016040519081016040528092919081815260200182805461056390610e33565b80156105b05780601f10610585576101008083540402835291602001916105b0565b820191906000526020600020905b81548152906001019060200180831161059357829003601f168201915b505050505081526020016002820180546105c990610e33565b80601f01602080910402602001604051908101604052809291908181526020018280546105f590610e33565b80156106425780601f1061061757610100808354040283529160200191610642565b820191906000526020600020905b81548152906001019060200180831161062557829003601f168201915b50505050508152602001600382015481526020016004820160009054906101000a900460ff161515151581525050905060008160600151036106b9576040517f08c379a00000000000000000000000000000000000000000000000000000000081526004016106b09061117a565b60405180910390fd5b80608001518160000151826020015183604001518460600151955095509550955095505091939590929450565b60008060009054906101000a900473ffffffffffffffffffffffffffffffffffffffff16905090565b610717610795565b600073ffffffffffffffffffffffffffffffffffffffff168173ffffffffffffffffffffffffffffffffffffffff16036107895760006040517f1e4fbdf70000000000000000000000000000000000000000000000000000000081526004016107809190610d24565b60405180910390fd5b6107928161081c565b50565b61079d6108e0565b73ffffffffffffffffffffffffffffffffffffffff166107bb6106e6565b73ffffffffffffffffffffffffffffffffffffffff161461081a576107de6108e0565b6040517f118cdaa70000000000000000000000000000000000000000000000000000000081526004016108119190610d24565b60405180910390fd5b565b60008060009054906101000a900473ffffffffffffffffffffffffffffffffffffffff169050816000806101000a81548173ffffffffffffffffffffffffffffffffffffffff021916908373ffffffffffffffffffffffffffffffffffffffff1602179055508173ffffffffffffffffffffffffffffffffffffffff168173ffffffffffffffffffffffffffffffffffffffff167f8be0079c531659141344cd1fd0a4f28419497f9722a3daafe3b4186f6b6457e060405160405180910390a35050565b600033905090565b6000604051905090565b600080fd5b600080fd5b600080fd5b600080fd5b6000601f19601f8301169050919050565b7f4e487b7100000000000000000000000000000000000000000000000000000000600052604160045260246000fd5b61094f82610906565b810181811067ffffffffffffffff8211171561096e5761096d610917565b5b80604052505050565b60006109816108e8565b905061098d8282610946565b919050565b600067ffffffffffffffff8211156109ad576109ac610917565b5b6109b682610906565b9050602081019050919050565b82818337600083830152505050565b60006109e56109e084610992565b610977565b905082815260208101848484011115610a0157610a00610901565b5b610a0c8482856109c3565b509392505050565b600082601f830112610a2957610a286108fc565b5b8135610a398482602086016109d2565b91505092915050565b6000819050919050565b610a5581610a42565b8114610a6057600080fd5b50565b600081359050610a7281610a4c565b92915050565b60008060008060808587031215610a9257610a916108f2565b5b600085013567ffffffffffffffff811115610ab057610aaf6108f7565b5b610abc87828801610a14565b945050602085013567ffffffffffffffff811115610add57610adc6108f7565b5b610ae987828801610a14565b935050604085013567ffffffffffffffff811115610b0a57610b096108f7565b5b610b1687828801610a14565b9250506060610b2787828801610a63565b91505092959194509250565b600060208284031215610b4957610b486108f2565b5b6000610b5784828501610a63565b91505092915050565b600081519050919050565b600082825260208201905092915050565b60005b83811015610b9a578082015181840152602081019050610b7f565b60008484015250505050565b6000610bb182610b60565b610bbb8185610b6b565b9350610bcb818560208601610b7c565b610bd481610906565b840191505092915050565b6000819050919050565b610bf281610bdf565b82525050565b60008115159050919050565b610c0d81610bf8565b82525050565b600060a0820190508181036000830152610c2d8188610ba6565b90508181036020830152610c418187610ba6565b90508181036040830152610c558186610ba6565b9050610c646060830185610be9565b610c716080830184610c04565b9695505050505050565b600060a082019050610c906000830188610c04565b8181036020830152610ca28187610ba6565b90508181036040830152610cb68186610ba6565b90508181036060830152610cca8185610ba6565b9050610cd96080830184610be9565b9695505050505050565b600073ffffffffffffffffffffffffffffffffffffffff82169050919050565b6000610d0e82610ce3565b9050919050565b610d1e81610d03565b82525050565b6000602082019050610d396000830184610d15565b92915050565b610d4881610d03565b8114610d5357600080fd5b50565b600081359050610d6581610d3f565b92915050565b600060208284031215610d8157610d806108f2565b5b6000610d8f84828501610d56565b91505092915050565b7f436572746966696361746520616c726561647920657869737473210000000000600082015250565b6000610dce601b83610b6b565b9150610dd982610d98565b602082019050919050565b60006020820190508181036000830152610dfd81610dc1565b9050919050565b7f4e487b7100000000000000000000000000000000000000000000000000000000600052602260045260246000fd5b60006002820490506001821680610e4b57607f821691505b602082108103610e5e57610e5d610e04565b5b50919050565b60008190508160005260206000209050919050565b60006020601f8301049050919050565b600082821b905092915050565b600060088302610ec67fffffffffffffffffffffffffffffffffffffffffffffffffffffffffffffffff82610e89565b610ed08683610e89565b95508019841693508086168417925050509392505050565b6000819050919050565b6000610f0d610f08610f0384610bdf565b610ee8565b610bdf565b9050919050565b6000819050919050565b610f2783610ef2565b610f3b610f3382610f14565b848454610e96565b825550505050565b600090565b610f50610f43565b610f5b818484610f1e565b505050565b5b81811015610f7f57610f74600082610f48565b600181019050610f61565b5050565b601f821115610fc457610f9581610e64565b610f9e84610e79565b81016020851015610fad578190505b610fc1610fb985610e79565b830182610f60565b50505b505050565b600082821c905092915050565b6000610fe760001984600802610fc9565b1980831691505092915050565b60006110008383610fd6565b9150826002028217905092915050565b61101982610b60565b67ffffffffffffffff81111561103257611031610917565b5b61103c8254610e33565b611047828285610f83565b600060209050601f83116001811461107a5760008415611068578287015190505b6110728582610ff4565b8655506110da565b601f19841661108886610e64565b60005b828110156110b05784890151825560018201915060208501945060208101905061108b565b868310156110cd57848901516110c9601f891682610fd6565b8355505b6001600288020188555050505b505050505050565b600060608201905081810360008301526110fc8186610ba6565b905081810360208301526111108185610ba6565b905081810360408301526111248184610ba6565b9050949350505050565b7f436572746966696361746520646f6573206e6f74206578697374210000000000600082015250565b6000611164601b83610b6b565b915061116f8261112e565b602082019050919050565b6000602082019050818103600083015261119381611157565b905091905056fea26469706673582212200ec15a8f5ada9980f2cbecf1d9c7f43d7e3332cfbaba9c0da32f1199d2a5a0ed64736f6c634300081c0033",
  "linkReferences": {},
  "deployedLinkReferences": {}
}